{
  "transactions": [
    {
      "hash": "0x58254f1b7de5e9ad719d2ed11da2d94ba463e164eb5f6102cd49437f2e3e8ac2",
      "transactionType": "CALL",
      "contractName": null,
      "contractAddress": "0x8f22d60f408dba32ba2d4123ad0ae6d3c0b1d28b",
      "function": "mint(address,uint256)",
      "arguments": [
        "0x3Be7fbBDbC73Fc4731D60EF09c4BA1A94DC58E41",
        "300000000"
      ],
      "transaction": {
        "from": "0x3be7fbbdbc73fc4731d60ef09c4ba1a94dc58e41",
        "to": "0x8f22d60f408dba32ba2d4123ad0ae6d3c0b1d28b",
        "gas": "0xc19b",
        "value": "0x0",
        "input": "0x40c10f190000000000000000000000003be7fbbdbc73fc4731d60ef09c4ba1a94dc58e410000000000000000000000000000000000000000000000000000000011e1a300",
        "nonce": "0x9f",
        "chainId": "0x515"
      },
      "additionalContracts": [],
      "isFixedGasLimit": false
    },
    {
      "hash": "0xcadc2b0d0769cda8b4370fdc4b3f96b1b8e81cb3eef662d96d22e246e0ced8b8",
      "transactionType": "CALL",
      "contractName": null,
      "contractAddress": "0x8f22d60f408dba32ba2d4123ad0ae6d3c0b1d28b",
      "function": "approve(address,uint256)",
      "arguments": [
        "0xEe8a174c6fabDEb52a5d75e8e3F951EFbC667fDB",
        "300000000"
      ],
      "transaction": {
        "from": "0x3be7fbbdbc73fc4731d60ef09c4ba1a94dc58e41",
        "to": "0x8f22d60f408dba32ba2d4123ad0ae6d3c0b1d28b",
        "gas": "0x8c65",
        "value": "0x0",
        "input": "0x095ea7b3000000000000000000000000ee8a174c6fabdeb52a5d75e8e3f951efbc667fdb0000000000000000000000000000000000000000000000000000000011e1a300",
        "nonce": "0xa0",
        "chainId": "0x515"
      },
      "additionalContracts": [],
      "isFixedGasLimit": false
    },
    {
      "hash": "0x855a8674c588cdc2a4dade976d3bd07635c1535f3649a712f49a3d594f070656",
      "transactionType": "CREATE",
      "contractName": "RobustSwapper",
      "contractAddress": "0xab9ea053ecbcc5d6405ee584b92fb9dd918f9bac",
      "function": null,
      "arguments": [
        "0x00B036B58a818B1BC34d502D3fE730Db729e62AC"
      ],
      "transaction": {
        "from": "0x3be7fbbdbc73fc4731d60ef09c4ba1a94dc58e41",
        "gas": "0xab91f",
        "value": "0x0",
        "input": "0x608034606f57601f6108e438819003918201601f19168301916001600160401b03831184841017607357808492602094604052833981010312606f57516001600160a01b03811690819003606f575f80546001600160a01b03191691909117905560405161085c90816100888239f35b5f80fd5b634e487b7160e01b5f52604160045260245ffdfe60806040526004361015610011575f80fd5b5f5f3560e01c80631e2817de146103d0576391dd734614610030575f80fd5b34610342576020366003190112610342576004356001600160401b03811161034257366023820112156103425760048101356001600160401b03811161034257810136602482011161034257610120828203126103425760405190610094826105d3565b60a08382031261034257604051906100ab826105ee565b6100b76024850161062c565b82526100c56044850161062c565b6020830152606484013562ffffff8116810361034257604083015260848401358060020b810361034257606083015260a4840135906001600160a01b038216820361034257826024926080606095015284528460c31991030101126103425760405191610131836105d3565b60c4810135801515810361034257835260e481013560208401526101048101356001600160a01b03811681036103425761017a916101249160408601528460208501520161062c565b604082015260206101b461014460018060a01b035f54165f8551916101be6040519889968795633cf3645360e21b8752600487019061066a565b60a48501906106ad565b610120610104840152816101248401525af1918215610337575f9261039c575b50828260801d80600f0b905f8212610376575b5f85600f0b92818412610346575b136102bc575b5013610231575b61022d836040519061021f602083610609565b815260405191829182610640565b0390f35b825490516020015183916001600160a01b039182169116803b156102b857604051630b0d9c0960e01b8152938492839185918391610280916001600160801b03909116903090600485016106fc565b03925af180156102ad57610295575b8061020c565b6102a0828092610609565b6102aa575f61028f565b80fd5b6040513d84823e3d90fd5b8280fd5b5f548451519293506001600160a01b039081169216823b1561034257604051630b0d9c0960e01b8152925f92849283918591839161030b916001600160801b03909116903090600485016106fc565b03925af1801561033757610322575b908491610205565b61032f9194505f90610609565b5f925f61031a565b6040513d5f823e3d90fd5b5f80fd5b855160200151610371906001600160a01b03166001600160801b0361036a876106d1565b169061071e565b6101ff565b835151610397906001600160a01b03166001600160801b0361036a846106d1565b6101f1565b9091506020813d6020116103c8575b816103b860209383610609565b810103126103425751905f6101de565b3d91506103ab565b366003190161010081126103425760a013610342576040516103f1816105ee565b6004356001600160a01b03811681036103425781526024356001600160a01b038116810361034257602082015260443562ffffff811681036103425760408201526064358060020b81036103425760608201526084356001600160a01b038116810361034257608082015260603660a31901126103425760405190610475826105d3565b60a435801515810361034257825260c435602083015260e4356001600160a01b03811681036103425761052f835f938493604083015260018060a01b03845416916104f1604080516104c6816105d3565b8481526020810193845201913383526104e660405194602086019061066a565b5160c08401906106ad565b516001600160a01b031661012082810191909152815261051361014082610609565b6040519485809481936348c8949160e01b835260048301610640565b03925af180156103375761053f57005b3d805f833e61054e8183610609565b810190602081830312610342578051906001600160401b038211610342570181601f820112156103425780516001600160401b0381116105bf57604051926105a0601f8301601f191660200185610609565b81845260208284010111610342575f928160208094018483015e010152005b634e487b7160e01b5f52604160045260245ffd5b606081019081106001600160401b038211176105bf57604052565b60a081019081106001600160401b038211176105bf57604052565b601f909101601f19168101906001600160401b038211908210176105bf57604052565b35906001600160a01b038216820361034257565b602060409281835280519182918282860152018484015e5f828201840152601f01601f1916010190565b80516001600160a01b03908116835260208083015182169084015260408083015162ffffff169084015260608083015160020b9084015260809182015116910152565b805115158252602080820151908301526040908101516001600160a01b0316910152565b600f0b60016001607f1b031981146106e8575f0390565b634e487b7160e01b5f52601160045260245ffd5b6001600160a01b03918216815291166020820152604081019190915260600190565b5f91906001600160a01b03168061078c57508154604051630476982d60e21b81529160209183916004918391906001600160a01b03165af180156102ad57610764575050565b602090813d8311610785575b61077a8183610609565b810103126102aa5750565b503d610770565b915060018060a01b035f541690604051916323b872dd60e01b8352336004840152602483015260448201526020816064815f865af1801561033757610818575b505f546001600160a01b031690813b15610342575f91602483926040519485938492632961046560e21b845260048401525af180156103375761080c5750565b5f61081691610609565b565b6020813d602011610847575b8161083160209383610609565b81010312610342575180151581146107cc575f80fd5b3d915061082456fea164736f6c634300081e000a00000000000000000000000000b036b58a818b1bc34d502d3fe730db729e62ac",
        "nonce": "0xa1",
        "chainId": "0x515"
      },
      "additionalContracts": [],
      "isFixedGasLimit": false
    },
    {
      "hash": "0xcdce2d2801cce58cf42175f833df7ec6ce888f49361667c2705cc44b2c4ca1d1",
      "transactionType": "CALL",
      "contractName": "RobustSwapper",
      "contractAddress": "0xab9ea053ecbcc5d6405ee584b92fb9dd918f9bac",
      "function": "swap((address,address,uint24,int24,address),(bool,int256,uint160))",
      "arguments": [
        "(0x0000000000000000000000000000000000000000, 0x8f22D60F408DBA32ba2D4123aD0aE6D3c0b1d28B, 3000, 60, 0x03C499185c31fEef9b018E9e2f957fA4B0330a40)",
        "(true, -1000000000000000, 4295128740)"
      ],
      "transaction": {
        "from": "0x3be7fbbdbc73fc4731d60ef09c4ba1a94dc58e41",
        "to": "0xab9ea053ecbcc5d6405ee584b92fb9dd918f9bac",
        "gas": "0x2579e",
        "value": "0x38d7ea4c68000",
        "input": "0x1e2817de00000000000000000000000000000000000000000000000000000000000000000000000000000000000000008f22d60f408dba32ba2d4123ad0ae6d3c0b1d28b0000000000000000000000000000000000000000000000000000000000000bb8000000000000000000000000000000000000000000000000000000000000003c00000000000000000000000003c499185c31feef9b018e9e2f957fa4b0330a400000000000000000000000000000000000000000000000000000000000000001fffffffffffffffffffffffffffffffffffffffffffffffffffc72815b39800000000000000000000000000000000000000000000000000000000001000276a4",
        "nonce": "0xa2",
        "chainId": "0x515"
      },
      "additionalContracts": [],
      "isFixedGasLimit": false
    }
  ],
  "receipts": [
    {
      "status": "0x1",
      "cumulativeGasUsed": "0x5dee2",
      "logs": [
        {
          "address": "0x8f22d60f408dba32ba2d4123ad0ae6d3c0b1d28b",
          "topics": [
            "0xddf252ad1be2c89b69c2b068fc378daa952ba7f163c4a11628f55a4df523b3ef",
            "0x0000000000000000000000000000000000000000000000000000000000000000",
            "0x0000000000000000000000003be7fbbdbc73fc4731d60ef09c4ba1a94dc58e41"
          ],
          "data": "0x0000000000000000000000000000000000000000000000000000000011e1a300",
          "blockHash": "0x4cb85953a8c4408f9d2431a0d90727076e940ee7e4e8f5fa30f1df7332c6f29b",
          "blockNumber": "0x2a4af8f",
          "blockTimestamp": "0x69925cdb",
          "transactionHash": "0x855a8674c588cdc2a4dade976d3bd07635c1535f3649a712f49a3d594f070656",
          "transactionIndex": "0x5",
          "logIndex": "0x3",
          "removed": false
        }
      ],
      "logsBloom": "0x00000000000000000000000000000000000080000000000000000000000000000000000800000000000000000000000000000000000000000000000000000000000000000000000200000008000000000000000000000000000000000000000000000000020000000000000000000800000000000000000000000010008000000000000000000000000000000000000000000000000000000000000000000000000000000000000000000000000080000000000000000000000000000000000000000002000000000000000000000000000000000000000000000000000020000000000000000000000000000000080000000000000000000000000000000000",
      "type": "0x2",
      "transactionHash": "0x855a8674c588cdc2a4dade976d3bd07635c1535f3649a712f49a3d594f070656",
      "transactionIndex": "0x5",
      "blockHash": "0x4cb85953a8c4408f9d2431a0d90727076e940ee7e4e8f5fa30f1df7332c6f29b",
      "blockNumber": "0x2a4af8f",
      "gasUsed": "0x8462",
      "effectiveGasPrice": "0x7a121",
      "blobGasUsed": "0x9c40",
      "from": "0x3be7fbbdbc73fc4731d60ef09c4ba1a94dc58e41",
      "to": "0x8f22d60f408dba32ba2d4123ad0ae6d3c0b1d28b",
      "contractAddress": null,
      "daFootprintGasScalar": "0x190",
      "l1BaseFeeScalar": "0x7d0",
      "l1BlobBaseFee": "0xd567c7c",
      "l1BlobBaseFeeScalar": "0xdbba0",
      "l1Fee": "0x755b595b4",
      "l1GasPrice": "0xd3a851a9",
      "l1GasUsed": "0x640"
    },
    {
      "status": "0x1",
      "cumulativeGasUsed": "0x64487",
      "logs": [
        {
          "address": "0x8f22d60f408dba32ba2d4123ad0ae6d3c0b1d28b",
          "topics": [
            "0x8c5be1e5ebec7d5bd14f71427d1e84f3dd0314c0f7b2291e5b200ac8c7c3b925",
            "0x0000000000000000000000003be7fbbdbc73fc4731d60ef09c4ba1a94dc58e41",
            "0x000000000000000000000000ee8a174c6fabdeb52a5d75e8e3f951efbc667fdb"
          ],
          "data": "0x0000000000000000000000000000000000000000000000000000000011e1a300",
          "blockHash": "0x4cb85953a8c4408f9d2431a0d90727076e940ee7e4e8f5fa30f1df7332c6f29b",
          "blockNumber": "0x2a4af8f",
          "blockTimestamp": "0x69925cdb",
          "transactionHash": "0x58254f1b7de5e9ad719d2ed11da2d94ba463e164eb5f6102cd49437f2e3e8ac2",
          "transactionIndex": "0x6",
          "logIndex": "0x4",
          "removed": false
        }
      ],
      "logsBloom": "0x00000000000000000000000000000000000080000000000000000000000000000000000800000000000000000000000000000000000000000000000000200000000000000000000200000000000000000000000000000000000000000000000000000000000000000000000000000000000000000000000000000000008004000000000000000000000000000000000000000000000000000000000000000000020000000000000800000000000080000000000000000000000000000000000000000000000000000000000000000000000000000000008000000000000000000010000000000000000000000000080000000000000000000000000000000000",
      "type": "0x2",
      "transactionHash": "0x58254f1b7de5e9ad719d2ed11da2d94ba463e164eb5f6102cd49437f2e3e8ac2",
      "transactionIndex": "0x6",
      "blockHash": "0x4cb85953a8c4408f9d2431a0d90727076e940ee7e4e8f5fa30f1df7332c6f29b",
      "blockNumber": "0x2a4af8f",
      "gasUsed": "0x65a5",
      "effectiveGasPrice": "0x7a121",
      "blobGasUsed": "0x9c40",
      "from": "0x3be7fbbdbc73fc4731d60ef09c4ba1a94dc58e41",
      "to": "0x8f22d60f408dba32ba2d4123ad0ae6d3c0b1d28b",
      "contractAddress": null,
      "daFootprintGasScalar": "0x190",
      "l1BaseFeeScalar": "0x7d0",
      "l1BlobBaseFee": "0xd567c7c",
      "l1BlobBaseFeeScalar": "0xdbba0",
      "l1Fee": "0x755b595b4",
      "l1GasPrice": "0xd3a851a9",
      "l1GasUsed": "0x640"
    },
    {
      "status": "0x1",
      "cumulativeGasUsed": "0xe8429",
      "logs": [],
      "logsBloom": "0x00000000000000000000000000000000000000000000000000000000000000000000000000000000000000000000000000000000000000000000000000000000000000000000000000000000000000000000000000000000000000000000000000000000000000000000000000000000000000000000000000000000000000000000000000000000000000000000000000000000000000000000000000000000000000000000000000000000000000000000000000000000000000000000000000000000000000000000000000000000000000000000000000000000000000000000000000000000000000000000000000000000000000000000000000000000",
      "type": "0x2",
      "transactionHash": "0xcdce2d2801cce58cf42175f833df7ec6ce888f49361667c2705cc44b2c4ca1d1",
      "transactionIndex": "0x7",
      "blockHash": "0x4cb85953a8c4408f9d2431a0d90727076e940ee7e4e8f5fa30f1df7332c6f29b",
      "blockNumber": "0x2a4af8f",
      "gasUsed": "0x83fa2",
      "effectiveGasPrice": "0x7a121",
      "blobGasUsed": "0x91690",
      "from": "0x3be7fbbdbc73fc4731d60ef09c4ba1a94dc58e41",
      "to": null,
      "contractAddress": "0xab9ea053ecbcc5d6405ee584b92fb9dd918f9bac",
      "daFootprintGasScalar": "0x190",
      "l1BaseFeeScalar": "0x7d0",
      "l1BlobBaseFee": "0xd567c7c",
      "l1BlobBaseFeeScalar": "0xdbba0",
      "l1Fee": "0x6d47a91e22",
      "l1GasPrice": "0xd3a851a9",
      "l1GasUsed": "0x5d1e"
    },
    {
      "status": "0x1",
      "cumulativeGasUsed": "0x103647",
      "logs": [
        {
          "address": "0x00b036b58a818b1bc34d502d3fe730db729e62ac",
          "topics": [
            "0x40e9cecb9f5f1f1c5b9c97dec2917b7ee92e57ba5563708daca94dd84ad7112f",
            "0xbb5a49264070a3a2ba6d65a52b65f08e1d1b3ad65331dad579bce2649220afb6",
            "0x000000000000000000000000ab9ea053ecbcc5d6405ee584b92fb9dd918f9bac"
          ],
          "data": "0xfffffffffffffffffffffffffffffffffffffffffffffffffffc72815b398000000000000000000000000000000000000000000000000000000000000000002800000000000000000000000000000000000000000000035feb8243d3ce6aac4f0000000000000000000000000000000000000000000000000003884ed5d311dcfffffffffffffffffffffffffffffffffffffffffffffffffffffffffffb4b4f0000000000000000000000000000000000000000000000000000000000000bb8",
          "blockHash": "0x4cb85953a8c4408f9d2431a0d90727076e940ee7e4e8f5fa30f1df7332c6f29b",
          "blockNumber": "0x2a4af8f",
          "blockTimestamp": "0x69925cdb",
          "transactionHash": "0xcadc2b0d0769cda8b4370fdc4b3f96b1b8e81cb3eef662d96d22e246e0ced8b8",
          "transactionIndex": "0x8",
          "logIndex": "0x5",
          "removed": false
        },
        {
          "address": "0x8f22d60f408dba32ba2d4123ad0ae6d3c0b1d28b",
          "topics": [
            "0xddf252ad1be2c89b69c2b068fc378daa952ba7f163c4a11628f55a4df523b3ef",
            "0x00000000000000000000000000b036b58a818b1bc34d502d3fe730db729e62ac",
            "0x000000000000000000000000ab9ea053ecbcc5d6405ee584b92fb9dd918f9bac"
          ],
          "data": "0x0000000000000000000000000000000000000000000000000000000000000028",
          "blockHash": "0x4cb85953a8c4408f9d2431a0d90727076e940ee7e4e8f5fa30f1df7332c6f29b",
          "blockNumber": "0x2a4af8f",
          "blockTimestamp": "0x69925cdb",
          "transactionHash": "0xcadc2b0d0769cda8b4370fdc4b3f96b1b8e81cb3eef662d96d22e246e0ced8b8",
          "transactionIndex": "0x8",
          "logIndex": "0x6",
          "removed": false
        }
      ],
      "logsBloom": "0x00000000000000000000000000000000000000000000000000000000000000000000000800000000000000004000000000000000041000000000000000000000000000000000000200000008000000000000000000000021000000000000000000000000000000000000000000004000000000000000000000000010000000000000000000000000000000000008000000000000000000000000000000000000000000000000000000000000000080000000000000000020000000000000000000000002000000000040000000000000000000000000000000000000000000000000000000000000004020000080000000000000000002000000000000000110",
      "type": "0x2",
      "transactionHash": "0xcadc2b0d0769cda8b4370fdc4b3f96b1b8e81cb3eef662d96d22e246e0ced8b8",
      "transactionIndex": "0x8",
      "blockHash": "0x4cb85953a8c4408f9d2431a0d90727076e940ee7e4e8f5fa30f1df7332c6f29b",
      "blockNumber": "0x2a4af8f",
      "gasUsed": "0x1b21e",
      "effectiveGasPrice": "0x7a121",
      "blobGasUsed": "0xdac0",
      "from": "0x3be7fbbdbc73fc4731d60ef09c4ba1a94dc58e41",
      "to": "0xab9ea053ecbcc5d6405ee584b92fb9dd918f9bac",
      "contractAddress": null,
      "daFootprintGasScalar": "0x190",
      "l1BaseFeeScalar": "0x7d0",
      "l1BlobBaseFee": "0xd567c7c",
      "l1BlobBaseFeeScalar": "0xdbba0",
      "l1Fee": "0xa503527ae",
      "l1GasPrice": "0xd3a851a9",
      "l1GasUsed": "0x8c9"
    }
  ],
  "libraries": [],
  "pending": [],
  "returns": {},
  "timestamp": 1771199707124,
  "chain": 1301,
  "commit": "c563768"
}